:020000040800F2
:10000000C8910024B9030008210C0008390B00082E
:10001000790B0008890A0008310F00080000000071
:10002000000000000000000000000000A10C00081B
:10003000910A000800000000310C0008F90C0008CB
:10004000E5030008E5030008E5030008E5030008F0
:10005000E5030008E5030008E5030008E5030008E0
:10006000E5030008E5030008E5030008E5030008D0
:10007000E5030008E5030008E5030008E5030008C0
:10008000E5030008E5030008E503000800000000A0
:10009000000000000000000000000000E503000870
:1000A000E5030008E5030008E5030008E503000890
:1000B000E5030008E5030008E5030008E503000880
:1000C000E5030008E5030008E5030008E503000870
:1000D000E5030008E10E0008E5030008E503000859
:1000E000E5030008E503000800000000E503000840
:1000F000E5030008E5030008E5030008E503000840
:10010000E5030008E5030008E5030008E50300082F
:10011000E5030008E5030008E5030008E50300081F
:10012000E5030008E5030008E5030008E50300080F
:10013000E5030008E5030008E503000800000000EF
:1001400000000000000000000000000000000000AF
:10015000E5030008E5030008E5030008E5030008DF
:10016000E5030008E5030008E5030008E5030008CF
:10017000E5030008E5030008E5030008E5030008BF
:10018000E5030008990A0008E5030008E5030008F4
:10019000E5030008E5030008E5030008E50300089F
:1001A000E5030008E5030008E5030008E50300088F
:1001B000E50300080000000000000000E50300085F
:1001C000E5030008E503000800000000000000004F
:1001D0000000000000000000E5030008000000002F
:1001E000000000000000000000000000000000000F
:1001F0000000000000000000E5030008E50300081F
:10020000E5030008E5030008E5030008000000001E
:10021000E5030008E5030008E5030008000000000E
:10022000E503000800000000E503000800000000EE
:10023000E5030008E503000800000000E5030008EE
:1002400000000000000000000000000000000000AE
:10025000000000000000000000000000000000009E
:1002600000000000E503000800000000000000009E
:10027000000000000000000000000000000000007E
:10028000E5030008E503000800000000000000008E
:100290000000000000000000E5030008E50300087E
:1002A000E5030008E5030008E5030008000000007E
:1002B000000000000000000000000000000000003E
:1002C00000000000E5030008E5030008E50300085E
:1002D000E5030008E5030008E5030008E50300085E
:1002E000E5030008E5030008E5030008E50300084E
:1002F000E5030008E5030008E5030008E50300083E
:10030000E5030008E503000800000000E50300081D
:10031000E5030008E5030008E5030008E50300081D
:10032000E5030008E5030008E5030008E50300080D
:10033000E5030008E5030008E5030008E5030008FD
:10034000E5030008E5030008E5030008E5030008ED
:10035000E5030008E5030008E5030008E5030008DD
:10036000E5030008E5030008E5030008E5030008CD
:10037000E5030008E5030008E5030008E5030008BD
:10038000E5030008E5030008E5030008E5030008AD
:10039000E5030008E5030008E5030008E50300089D
:1003A000E5030008DFF80CD000F0EAFA0048004747
:1003B000211C0008C89100240B4800F500414FF0B3
:1003C0000002E0E802228842FBD108488047084842
:1003D0000047FEE7FEE7FEE7FEE7FEE7FEE7FEE793
:1003E000FEE7FEE7FEE7000000000024110D000814
:1003F000A50300082DE9F05F0546002092469B46C4
:1004000088460646814640241BE02846414647462A
:10041000224600F0ECF853465A46C01A914110D3D8
:1004200011461846224600F0D3F82D1A67EB010852
:100430004F4622460120002100F0CAF817EB0009C0
:100440004E41201EA4F10104DFDC484631462A4615
:100450004346BDE8F09F40EA01039B0703D009E053
:1004600008C9121F08C0042AFAD203E011F8013BA0
:1004700000F8013B521EF9D27047D2B201E000F8F9
:10048000012B491EFBD270470022F6E710B5134638
:100490000A4604461946FFF7F0FF204610BD421CED
:1004A00010F8011B0029FBD1801A7047034611F890
:1004B000012B00F8012B002AF9D1184670470000E3
:1004C00007280FD2DFE800F00406080E0E0C0A0021
:1004D00005A070470AA0704713A070471DA0704781
:1004E00022A070472BA070474E6F206572726F720A
:1004F00020286572726E6F203D20302900000000B8
:1005000045444F4D202D2066756E6374696F6E20D3
:10051000617267756D656E74206F7574206F6620EB
:1005200072616E67650000004552414E4745202DBF
:100530002066756E6374696F6E20726573756C7476
:10054000206E6F7420726570726573656E7461627F
:100550006C650000454E4F4D454D202D206F757444
:10056000206F66206D656D6F7279000045494E56AB
:10057000414C202D20696E76616C69642061726740
:10058000756D656E7420746F2066756E6374696F27
:100590006E000000556E6B6E6F776E206572726F25
:1005A0007200000030B50B460146002020220124D5
:1005B00009E021FA02F59D4205D303FA02F5491B31
:1005C00004FA02F52844151EA2F10102F1DC30BD47
:1005D000202A04DB203A00FA02F100207047914003
:1005E000C2F1200320FA03F3194390407047202AF8
:1005F00004DB203A21FA02F00021704721FA02F3CD
:10060000D040C2F1200291400843194670472DE9BD
:10061000FE4F804681EA0300C00F0C46009021F097
:10062000004123F00045B8EB0200A94105D2404645
:10063000214690461C460B46024623F000401043DC
:1006400047D0270DC7F30A00C3F30A510290401A9E
:10065000019040286BDAC3F3130040F4801B00982C
:10066000924620B10023D2EB030A63EB0B0B0198F7
:100670005946C0F140025046FFF7AAFF06460D4614
:1006800050465946019A00F08DF910EB080061417F
:10069000002487EA115284EAE7731A4340D0009A93
:1006A00062B3019A012A4FEA075215DC001B61EB85
:1006B00002014FF0004202EA0752CDE90042001C5D
:1006C00041F5801132462B4600F08DF903B0BDE8AC
:1006D000F08F40462146F9E7001B61EB0201001C48
:1006E00041F5801300185B412018A2F5001747EB75
:1006F000030140EAD570B6196D4111E06D084FEA6B
:10070000360645EAC0754FEA0752001B61EB02014D
:10071000001C41F5801149084FEA30000019514191
:1007200032462B4603B0BDE8F04F00F04DB90098BB
:10073000012240000023D0EB020263EBE07300983B
:1007400021464FEAE074B8EB000061EB0401E9E7F1
:1007500083F000435BE781F0004158E72DE9FE4F4D
:1007600081EA030404F0004421F0004100944FF0BA
:10077000000B23F0004350EA01045ED052EA030468
:100780005BD0C3F30A54C1F30A552C44A4F2F334EA
:100790000194A0FB0254C1F3130141F48011C3F38F
:1007A000130343F4801301FB024400FB034E840A4D
:1007B000970A44EA815447EA8357A4FB07680295E5
:1007C0008D0A05FB07854FEA932C04FB0C54270583
:1007D000029D4FEA065847EA1637B5EB08056EEB5F
:1007E000070C870E920E47EA811742EA8312A7FB95
:1007F0000201B6EB0B0164EB00042B0D43EA0C3352
:100800005E1844EB1C50DA465146E7FB0201C5F383
:1008100013044FEA0B3343EA14534FEA0432019CAA
:1008200043EA0603A4F10C040294009CCDE900B451
:1008300000F0D9F803B0BDE8F08F00200146F9E7D9
:100840002DE9F04D81EA030404F0004B21F000454E
:1008500014464FF0000A23F0004150EA050220D070
:1008600054EA01021DD0C5F30A570246C5F313032B
:10087000C1F31300C1F30A5640F4801543F480130A
:10088000A7EB0608101BD64608F2FD3873EB0500EF
:1008900002D308F1010801E092185B41B8F1000FA2
:1008A00003DA00200146BDE8F08D00204FF48011EE
:1008B000064684460EE0171B73EB050705D3121B93
:1008C00063EB050306434CEA010C49084FEA30008C
:1008D00092185B4150EA0107EDD152EA030012D0B1
:1008E00082EA040083EA0501084305D0101BAB41EE
:1008F00006D20122002306E000224FF0004302E06E
:100900006FF0010253101AEB06004CEB085110EB8C
:100910000A0041EB0B01BDE8F04D00F055B8C1F302
:100920000A52C1F3130140F2FF3341F480119A429D
:1009300002DA00200146704740F233439A42A2F2A5
:10094000334202DC5242FFF752BEFFF741BE0000C5
:1009500030B5041E71F1000404DB4FF00044404246
:1009600064EB0101141E73F1000405DB1C464FF01B
:100970000043524263EB0403994208BF904230BDEA
:10098000064C074D06E0E06840F0010394E80700DC
:1009900098471034AC42F6D3FFF708FD40640008D6
:1009A00060640008202A06DBCB17203A41FA02F0E7
:1009B00043EAE07306E041FA02F3D040C2F12002BC
:1009C000914008431946704710B5141E73F1000496
:1009D00008DA401C41F1000192185B411A4301D131
:1009E00020F0010010BD2DE9F04D92469B4611B15B
:1009F000B1FA81F202E0B0FA80F220329046FFF7BD
:100A0000E7FD04460F4640EA0A0041EA0B0153465F
:100A10005A46084313D0114653EA010019D0C8F1D1
:100A200040025046FFF7E3FD05460E465046594644
:100A30004246FFF7CDFD084305D0012004E02046E3
:100A40003946BDE8F08D0020054346EAE0762C43A8
:100A500037430A986305E40AA0EB08000022FD0A68
:100A600044EA47540A3002D500200146E9E701056F
:100A700010196941DDE9084500196941BDE8F04DEB
:100A8000A2E7000000000000FEE7000000000000F8
:100A9000FEE7000000000000FEE70000000000008C
:100AA00010B582B04FF4807001210022012403F0C0
:100AB0007BFF40F21C01C2F20041086050B340F6D7
:100AC000813040F2200CC0F6000015A14FF4807276
:100AD0000023C2F2004C0094CDF804C004F098F951
:100AE000C0B2012818D10120009040F6413040F2F8
:100AF0001804C0F600000EA180220023C2F20044B8
:100B0000019404F085F90446C0B2012805D103F030
:100B1000EBFD02E0FF2400E0FF24E0B202B010BDD4
:100B20006D6F646275735F736C61766500000000C1
:100B300052756E6E696E6700FEE7000000000000EF
:100B400000244FF47060C5F6020403F07DF8012123
:100B500000224023204601F007F84021204600F003
:100B6000FBFF00BF4021204600F0FAFF4FF49670D3
:100B700003F01EFDF6E70000FEE7000000000000A5
:100B8000C2B002AC4FF480712046FFF77DFC00201C
:100B900000210A22002301F0A3F80546C06A0A21B9
:100BA0004E22C0F2140101601BA04FF4E131082372
:100BB0000127009701F008F90121064601F084FDA4
:100BC0000121304601F05CFD48F2A0670021C0F22F
:100BD000010730463A4601F03FFD002130463A46D3
:100BE00001F05AFD304601F03BF8304601F048F87C
:100BF00004E000BF4FF4FA7003F0DAFC30462146FF
:100C000001F08AF90128F5DB0246304621462B46E1
:100C100001F092F9EEE700BF434F4D3100000000B4
:100C2000FEE70000000000000000000000000000DF
:100C3000EFF30980BFF36F8F154B1A681EF0100F8A
:100C400008BF20ED108A20E9F04F10602DE909005F
:100C50004FF0500072B680F31188BFF34F8FBFF38F
:100C60006F8F62B603F084FD4FF0000080F31188AF
:100C7000BDE8090019680868B0E8F04F1EF0100FD1
:100C800008BFB0EC108A80F30988BFF36F8F7047FC
:100C90002800002400000000000000000000000008
:100CA000074B19680868B0E8F04F80F30988BFF374
:100CB0006F8F4FF0000080F31188704700BF00BFB6
:100CC0002800002400000000B0B501380024B4EB77
:100CD000106F01D00120B0BD4EF21005CEF200051C
:100CE00068600F2000F028F9AC60072028602046DB
:100CF000B0BD00000000000080B504F09DF80128A0
:100D000008BF80BD03F034FE80BD0000000000007D
:100D100070B54EF61450CEF20000416F41F47001F0
:100D200041670168C90327D400210167BFF34F8FD2
:100D3000C16E43F6E07CC1F3C903C1F34E3203F147
:100D4000010E9B070CEA42111C46754644EA010657
:100D5000013D04F14044C0F84C62F7D1002AA2F1F1
:100D60000102EFD1BFF34F8F016841F48031016080
:100D7000BFF34F8FBFF36F8F00210167BFF34F8F1A
:100D8000016843F6E07C21F480310160BFF34F8FAE
:100D9000C16EC1F3C903C1F34E3203F1010E9B07CB
:100DA0000CEA42111C46754644EA0106013D04F175
:100DB0004044C0F86062F7D1002AA2F10102EFD1ED
:100DC00044F20040C5F60200BFF34F8FBFF36F8FB0
:100DD000016841F0804101600168B1F1FF3FFBDC37
:100DE000C16C41F00101C16440F26841C5F60001E7
:100DF0000A6822F001020A6081684FF6FF7221F052
:100E0000030181600168CEF6F222114001604FF6C5
:100E1000FE72D0F8C410CAF6FF721140C0F8C410B8
:100E200040F20C328168C0F2C0021140816043F68A
:100E3000CC72D0F88C10C7F600621140C0F88C104C
:100E400048F28002D0F89010C8F688021140C0F82D
:100E500090104EF6C072D0F89410CCF2FF321140D0
:100E6000C0F89410D0F8D01040F201329143C0F88D
:100E7000D01048F68802D0F8F010CFF688721140F2
:100E8000C0F8F0100021C1F2FF41C1604FF4E00151
:100E9000C0F8CC1042F22001C0F20111A1F580325D
:100EA000426040F20112C0F88410C0F8881000219E
:100EB000C0F89810C0F20102C0F88020C0F8D81025
:100EC000C0F89C10C0F8A010C0F8A41003F05CF8A3
:100ED0004FF00060002101F05FFD70BD00000000D8
:100EE000B0B582B041F200040525C4F20104C0F29D
:100EF000057500208DF807002046294603F09CF96F
:100F000098B12046294603F067F9204603F0C0F85F
:100F100040F21C018DF80700C2F2004100220023BC
:100F200008680DF1070103F0C3FD02B0B0BD000079
:100F3000FEE70000000000004EF623510001CEF253
:100F4000000108707047000084B040F200051446AC
:100F5000C2F200450E46074620A0162101222B466C
:100F600004F0CBFE3846294604F0BBFE21A0072141
:100F700001222B4604F0C1FE3046294604F0B1FEA2
:100F80001EA0072101222B4604F0B7FE01A8012C68
:100F900000F10A004FF00A01ADF80E1015DB46F221
:100FA0006761C6F2666100BF54FB01F2092C4FEA8B
:100FB000A20303EBD27202EB8203A4EB43031446B9
:100FC00003F1300300F8013DEEDC40F20001C2F213
:100FD000004104F086FE00F01BFB00BF2A2A2A20F5
:100FE000617373657274696F6E206661696C6564A4
:100FF0003A2000002C2066696C6520002C206C696A
:101000006E6520000000000010B58068002808BF51
:1010100010BD0C4604F0F8F9006801F065FB0246CB
:1010200040F20000C2F200400AA104F0C3F944B14A
:1010300040F200000AA1C2F20040224604F0BAF9D0
:1010400010BD40F200010A20C2F2004100F030FD64
:1010500010BD00BF4552524F5220257300000000C2
:101060003A2025730A0000004AF220124FF0FF31A7
:10107000C0E9001100210161C0E90211C0F20702BC
:10108000C0E90512C0E90712C0E909117047000064
:101090002DE9F04F85B0044680681546039130B1C4
:1010A00065A16DA0002D08BF084604F03FFEE06A70
:1010B000C16B2046884748B1E06A406800F10107EB
:1010C00095B16069049004F1180017E0A068002849
:1010D00000F08D8040F200036FA0C2F2004329218E
:1010E000012204F00AFE82E0616A0491084619B9FF
:1010F000A06A002800F0808004F12800D0F8008069
:10110000002F00F08080009503985BA54FF0000A47
:10111000013801900020029005E000BFD4F8208043
:101120000490002F71D044F6D351E06AC1F26201FD
:101130004FF47A73A8FB01120499C66A03984B43D3
:1011400000EB0A0103EB92103A4683B22046B04707
:10115000834630B904F058F94FF0FF3B42F2B561D5
:1011600001601BF101003ED0A06870B1BBF1010F1E
:101170000BDB01985E4600EB0A0900BF19F8011F5E
:10118000284604F025F9013EF8D1B7EB0B07DA4405
:101190001CD10298C0B201280BD000BBE06A0399B1
:1011A0004068085C009900F0ABFA10B107460120D6
:1011B0000BE020460399009A00F076FAE16A0746B0
:1011C0005044C96888422ED802200290002FA8D02F
:1011D000E0690028A2D1216A00299FD1A1E7002758
:1011E000002FF5D19DE72AA12046FFF70DFF4FF014
:1011F000FF3005B0BDE8F08F4FF0000800200490EC
:10120000002F7FF480AF4FF0000AA06810B10A20D1
:1012100004F086FDE06A03995246036B2046984726
:1012200005B0BDE8F08F04F0EFF844F25B21C0F2A6
:10123000B261016012A1D7E757616974696E6720D6
:10124000666F7220616E20696E6469636174696F94
:101250006E2E2E2E0000000057616974696E6720A3
:10126000666F72206120636F6E6669726D6174696A
:101270006F6E2E2E2E0000003C252E32583E0000B0
:10128000746F6F206D616E7920646174610000007D
:1012900072656164000000004552524F522054684C
:1012A0006520636F6E6E656374696F6E206973206D
:1012B0006E6F742065737461626C69736865642E07
:1012C0000A0000000000000080B5D0F800C01CF14A
:1012D00001001FBFDDF808E08EF800C08EF8011095
:1012E000100A1FBF8EF802008EF80320180A8EF82D
:1012F00004001EBF06208EF8053080BD02A007A1A5
:101300004F22FFF721FE00BF6374782D3E736C619E
:10131000766520213D202D31000000002E2E2F4D1E
:101320006964646C65776172652F6C69626D6F6466
:101330006275732F7372632F6D6F646275732D7294
:1013400074752E63000000000246006808700220D9
:1013500052684A70704700002DE9F0410F46961E12
:1013600091F800800446B1B23846154600F02CFAD8
:10137000BA5B82420FD1B8F1000F09D02268424512
:1013800006D0A06810B320A0414604F021F8002543
:101390002846BDE8F0810346A06830B140F2000065
:1013A0000CA1C2F2004004F005F8207B400702D5F2
:1013B000204600F049F804F027F844F25A21C0F220
:1013C000B26101604FF0FF30BDE8F0810020BDE860
:1013D000F08100BF4552524F522043524320726564
:1013E00063656976656420307825305820213D207A
:1013F0004352432063616C63756C61746564203093
:10140000782530580A0000005265717565737420A4
:10141000666F7220736C6176652025642069676E43
:101420006F72656420286E6F74202564290A00009D
:1014300080B501F075F980BD10B5044601F0B0F932
:1014400001200121616010BDB0B582B040F21C05E1
:101450000DF10704C2F2004528680022214603F07E
:10146000BBFB0028F8D1012002B0B0BD0000000095
:1014700010B50446006B28B1006802F0C1FF206B74
:1014800002F0BEFF204602F0BBFF10BD00000000CE
:1014900000207047000000004068C043C00F704744
:1014A00080B50B7801460020ABB11278934208BF9B
:1014B00080BD886830B140F2000007A1C2F2004050
:1014C00003F078FF03F0A0FF44F25F21C0F2B261A5
:1014D00001604FF0FF3080BD546865207265737005
:1014E0006F6E64696E6720736C6176652025642079
:1014F00069736E27742074686520726571756573F1
:1015000074656420736C6176652025640A000000B0
:10151000B0B5056B0446E86870B101222046FFF7BC
:10152000B7FDA06800284FF00000E8600ED008A0CA
:1015300004F0FCFB0020B0BD00222046FFF7A8FD10
:10154000002818BFB0BD0120E8600020B0BD00BF7A
:10155000436F6E6669726D6174696F6E20746F207F
:1015600069676E6F7265000080B540F21C001A4614
:10157000C2F20040006803F02FFB0138B0FA80F09F
:10158000400980BD000000000020704700000000FE
:1015900080B50846114601F0D3F880BD0000000078
:1015A000B0B50C46054689B200F00EF9A11C2853CF
:1015B0000846B0BD0000000080B5002907D4027CB9
:1015C00092074FF0FF0258BFF7228A4206DA03F073
:1015D0001BFF052101604FF0FF3080BD016000203E
:1015E00080BD00000000000080B5D0E9050144F690
:1015F000D352C1F26202A1FB02124FF47A71484346
:1016000000EB921080B202F0D3FF80BD000000001A
:10161000FEE700000000000070B54EF61450CEF258
:1016200000000168890312D4BFF34F8FBFF36F8F9F
:101630000021C0F83C12BFF34F8FBFF36F8F0168DA
:1016400041F400310160BFF34F8FBFF36F8F002172
:101650000167BFF34F8F016843F6E07C21F48031CE
:101660000160BFF34F8FC16EC1F3C903C1F34E32A6
:1016700003F1010E9B0700BF0CEA42111C467546A0
:1016800044EA0106013D04F14044C0F86062F7D12C
:10169000002AA2F10102EFD1BFF34F8FBFF36F8F8A
:1016A00070BD00000000000080B5D0F82CC0DCF850
:1016B0000430C85C7AB117284FF0000E1BD8012205
:1016C00002FA00F01F22C0F2820210421CBF58181A
:1016D00090F801E00FE0A0F10F02022A03D258189F
:1016E00090F805E007E0172803D1581890F809E0B2
:1016F00001E04FF0000EDCF80800704480BD0000EF
:101700000029014611D016290DD8012048F26002A7
:101710008840C0F2010210421CBF04207047162905
:1017200004BF0620704701207047072901DA042012
:101730007047A1F10F00022801D205207047002058
:10174000172908BF0920162908BF06207047000086
:1017500010B5D0F82CC0DCF804E011F80E00431EE0
:10176000162B27D803224FF0FF30DFE803F01515C2
:101770000C0C2323262323232323232323232B235C
:10178000232323250C000EEB0100C17800794000D3
:1017900040EA4120821C10E00EEB01000123C178D9
:1017A000007940EA0121CA08400718BF03EBD102C3
:1017B000023202E0052200E0072202EB0E00DCF814
:1017C0000810084410BD0000D9B110B546F23B2CFA
:1017D00046F23B3E421EFF20C0F6000CC0F6000E53
:1017E000FF2300BF12F8014F013944401CF80400E8
:1017F00058401EF804300C04F4D11902BDE8104022
:1018000002E0FF204FF47F41084380B270470000A0
:10181000B0B504464FF4706002F016FA41F21100C0
:1018200002F012FA00250721C5F602050422284617
:1018300000F05AF9022101220423284600F094F90D
:10184000002101220423284600F0BAF907210822CA
:10185000284600F049F9022101220823284600F019
:1018600083F9002101220823284600F0A9F944F257
:101870000045C4F20005284602F012FC2846214625
:1018800002F09EFB0021284602F0FAFC00212846C7
:1018900002F00AFD0021284602F0DEFC082128465D
:1018A00002F0FAFC0421284602F0E2FC284602F08D
:1018B0006BFCB0BD0000000001EB410100EBC1007A
:1018C000016921F001010161704700000000000082
:1018D00001EB410100EBC100016941F0010101612F
:1018E000704700000000000080B501EB41024FF09E
:1018F000000C00EBC202136923F0010313610B1FFC
:10190000C2F810C0C2F814C0C2F818C028BFD9B2BB
:101910004FF00C03C2F81CC0C2F820C001EB410E0E
:1019200001F0020138BF08234900C2F824C001EBCE
:101930004E013D2202FA01F11A581143195080BD9F
:101940000B1F28BFD9B24FF00C0338BF082301EB9F
:10195000410C01F00201490001EB4C0102FA01F1D6
:101960001A58114319507047032908D801EB410355
:1019700001F002014900006801EB43010AE004396B
:101980004068CBB25B0053FA81F301F002014900D9
:1019900001EB430102FA01F1084018BF0120704732
:1019A000002A4FF0200208BF1C2201EB4101104425
:1019B00040F831307047000010B501EB410300EBF7
:1019C000C30EDEF8243023F00403CEF8243053682D
:1019D000CEF81830D368CEF81C30136ACEF8143025
:1019E00048F23F73DEF810C0CFF6FC73546A0CEA7D
:1019F000030C53694CEA030C4CEA8303D2F81CC075
:101A0000234343EA0C03CEF81030D2F808C0BCF1EF
:101A1000010F07D0BCF1000F09D1DEF8103043F4FC
:101A2000007C0EE0DEF8103023F4007C09E0DEF8E4
:101A3000103043F40073CEF81030DEF8103043F469
:101A4000004CCEF810C01369DEF8104024F4806416
:101A5000002B08BF04F58064CEF810409369DEF8CF
:101A60001040002B40F20003C4F2020324F48074FF
:101A700043EA810108BF04F58074984201F50260D1
:101A800008BF01F50060CEF81040016821F0FF01A9
:101A90000160116802681143016010BD0000000080
:101AA00001EB410100EBC100426170470000000002
:101AB000B0B544F200450446C1B2C4F20005284660
:101AC00002F0EAFA40F20771284602F065FB0028AE
:101AD000F8D02046B0BD000080B54FF4E130FFF7EC
:101AE00097FE80BD00000000F0B5D0F820E0D0F8EF
:101AF00024C000230F27002504E000BF0135043374
:101B0000082D0CD022FA05F6F607F7D007FA03F6EF
:101B10002EEA060601FA03F446EA040EEEE708236D
:101B200000240F2504E000BF01330434102B0CD037
:101B300022FA03F6F607F7D005FA04F62CEA0607B0
:101B400001FA04F647EA060CEEE7C0F820E0C0F818
:101B500024C0F0BD0000000081627047000000005A
:101B6000C1627047000000002DE9F0430468D0F81E
:101B70000CC04FF0000E4FF00308002605E000BF38
:101B800001360EF1020E102E12D023FA06F7FF07CF
:101B9000F6D008FA0EF724EA070901FA0EF42CEA47
:101BA000070702FA0EF544EA090447EA050CE7E7DD
:101BB0000460C0F80CC0BDE8F08300000000000025
:101BC000B0B5012902D14168194301E04168994348
:101BD00041600021D0F808C04FF0030E002403E05C
:101BE00001340231102C0CD023FA04F5ED07F7D0A4
:101BF0000EFA01F52CEA050C02FA01F54CEA050C87
:101C0000EEE7C0F808C0B0BD80B54FF4407000F0FA
:101C1000B7FE25200621002200F07EFE80BD0000D8
:101C2000FFF7FAFC02F0B4F900F0C6FEFFF754FF2C
:101C3000FFF7EAFFFEF734FF014602A003F0C8FBFE
:101C4000FEE700BF25640A00002808BF704780B582
:101C5000C16A096C8847BDE88040704700000000F9
:101C600080B518B1C16A896B884780BD03F0CCFB91
:101C7000052101604FF0FF3080BD00000000000032
:101C8000B0B578B10546C06A416C2846884704461D
:101C9000013005D0A86818B106A0214603F098FBD2
:101CA0002046B0BD03F0B0FB052101604FF0FF30CE
:101CB000B0BD00BF427974657320666C757368654A
:101CC0006420282564290A00002808BF704780B5D1
:101CD000C16AC96C8847BDE88040704700000000B9
:101CE00080B584B08C46014600200290CDE9000208
:101CF000002000220393634600F002F804B080BD88
:101D00002DE9F041064630201D4690460F4601F071
:101D100057FB68B104460760466067B1384601F07A
:101D20004FFB0028206247D03946FEF7ADFB04E0A8
:101D30000020BDE8F08100202062A560C4F80C807E
:101D400045B1284601F03CFB606290B32946FEF79E
:101D50009BFB01E0002060620798A0610699E161A9
:101D600048B14500284601F02BFBE062F0B129465E
:101D7000FEF78AFB01E00020E062099820610899E3
:101D8000616158B14500284601F01AFBA06250B1CC
:101D90002946FEF779FB2046BDE8F0810020A062CD
:101DA0002046BDE8F081E06A02F02AFB606A02F09A
:101DB00027FB206A02F024FB204602F021FB0020D2
:101DC000BDE8F081000000002DE9F04381B000285B
:101DD0003FD005460078E0B30F4600294BD03420B1
:101DE0009846914601F0ECFA002853D00446FFF7DC
:101DF0003BF945F69450C0F60000E062102001F077
:101E0000DFFA0028206347D006462846FEF747FB46
:101E1000013001F0D5FA0028306046D02946FEF79F
:101E200045FBA9F1450077600A2847D8012101FA4E
:101E300000F040F20161084240D008987072002022
:101E4000F060304686F80A9086F8088000F0B8FC0A
:101E50000DE040F2000328A0C2F200431B21012242
:101E600003F04BFF03F0D0FA052101600024204667
:101E700001B0BDE8F08340F2000315A0C2F20043B8
:101E80002521012203F039FF03F0BEFA052101608C
:101E90000024ECE70024EAE72046FFF715FF03F0F3
:101EA000B3FA062101600024E1E72046FFF70CFFAA
:101EB00003F0AAFA062101600024D8E72046FFF7C4
:101EC00003FF03F0A1FA002405210160CFE700BF62
:101ED0005468652062617564207261746520766162
:101EE0006C7565206D757374206E6F74206265204B
:101EF0007A65726F0A00000054686520646576692F
:101F0000636520737472696E6720697320656D70F4
:101F100074790A000000000080B518B1C26A926AA4
:101F2000904780BD03F070FA052101604FF0FF304B
:101F300080BD0000000000002DE9F04FCFB0002868
:101F400060D08246C06A0E46914641689B4674182E
:101F500014F8012C755CB4F80170C16930460C9519
:101F6000CDE90A228847691E0D90162900F2D68015
:101F700038BA4FEA1048DFE811F0170017004E009A
:101F80004E007D00A400BF00D100D100D100D100DF
:101F9000D100D100D100DD00F9002301D100D10032
:101FA000D100D1003D016E0104225946022D46F2B6
:101FB000F41704BF0C220831E378247946F2EA10C2
:101FC000C0F60007C0F60000022D44EA03264FF0D9
:101FD000200308BF3846A6F1010708BF2423B7F540
:101FE000FA6FC0F0A68145F6E4510122C0F6000167
:101FF0000EABCDE90021CDE902600BA903224FF41D
:10200000FA6035E003F000FA052101604FF0FF307F
:102010004FB0BDE8F08F1C221821042D46F2C017E6
:1020200008BF142208BF1021E37894F8049046F208
:10203000B110C0F60007C0F60000042D08BF3846F6
:1020400049EA03274FF02C03A7F1010608BF282314
:102050007D2EC0F0928145F6E4510122C0F60001C8
:102060000EABCDE90021CDE902700BA903227D2042
:1020700004906AE2DBF80400B8EB000700F1C781C6
:10208000DBF80000874280F2C28150463146FFF7FC
:102090005FFB484540F00A82B4F80310DAF82C20C0
:1020A0000904926809BAB1F57F4F18BF002940F0C2
:1020B0003F820029DBF8203018BF0121851AD9554D
:1020C000BEE0DBF81C00B8EB000500F1BF80DBF8D8
:1020D0001800854280F2BA8050463146FFF738FB3F
:1020E000484540F0E881B4F80310DBF82C2009BA29
:1020F000090C22F815109FE0DAF8080048B140F208
:1021000000030FF28040C2F200431621012203F0C7
:10211000F4FD03F079F942F2C16176E745F6877084
:102120000121C0F600000EABCDE900100BA9012281
:1021300002950AE2B4F80300000402BA501E000936
:102140007A2804D86079B2EBC00F40F2938145F64B
:102150000C600121C0F600000292CDE900100BA92D
:102160000EAB03224FF4F6600390EEE1B4F80300E7
:10217000000401BA481E7A2800F22D816079B0EB84
:10218000410F40F02881DBF81C000023B8EB000071
:1021900000F1A5814218DBF81870BA4200F3A08163
:1021A000002900F07881DBF82C10A31E1F89023370
:1021B0003FBA3F0C21F8107001309042F6DB6AE123
:1021C000DAF82C000EAE314682690BA8904707461C
:1021D00030444FF6B4711622A0F8011046F22421C3
:1021E0000330C0F60001FEF736F907F11905182093
:1021F000F055AEE1DBF81C00B8EB000026D4DBF8AC
:102200001810884222DA6279B4F80310DBF82C3017
:10221000A779090447EA022233F8107009BA0F407F
:1022200022EA0101394323F8101050463146FFF7E6
:102230008FFA484540F04481DAF82C108968451A35
:102240000EA831462A46FEF706F982E145F6AC7043
:10225000C0F60000DFE0E0782379B4F8071043EA25
:1022600000290804A9F101017C2905BA00F2BE8009
:10227000681E782800F2BA80607AB0EB450F40F013
:10228000B580B4F80500DBF81C10B8EB01064FF080
:10229000000C4FEA004000BAA0EB010700F12A81D0
:1022A000DBF8182007EB050E964500F32581002F7B
:1022B00000F1228106EB0901914200F31D81DAF859
:1022C0002C000DF138080791414682690BA8CDE931
:1022D000083E9047DDF824C008994FEA410108F80C
:1022E00000105DB1DBF82C10A21E938902321BBADC
:1022F0001B0C21F8173001376745F6DBB9F1000FE9
:102300000A9C00F03481DBF82C100238079F01EBA7
:10231000460208EB000302305278DA7011F81620FA
:102320000136BE421A71F2DBC51C002C00F013818D
:1023300020E15BF80220B8EB02074FF0000273D4F3
:102340000968F5198D4270DCDAF82C000EAD2946CB
:102350005BF8038082690BA89047F10801226307AC
:102360002B4618BF02EBD601421C0092295440466E
:102370003946324601F0ECFCEAE05BF80220B8EBAB
:1023800002044FF0000266D45BF801103E198E4241
:1023900062DCDAF82C000DF1380841465BF8035096
:1023A00082690BA89047002F4FEA490108F80010F6
:1023B00000F09380023800BF05EB440108EB0002F7
:1023C00002304978D17015F814100134B4421171FB
:1023D000F2DBC51CBDE0012000907CA00EABCDE976
:1023E00001010BA903227B200390AEE045F6FD60BE
:1023F0000121C0F600000295CDE9001079200BA95B
:10240000CDE903900EAB03227D2005909DE046F2BE
:102410007700C0F6000000210EABCDE900100BA93B
:102420000222CDF8088090E0002645F6DA730A9C77
:1024300006EB0801C0F60003CDE9002302910BA9C9
:102440000EAB02220390504601F056FC0546002CCC
:1024500000F081808EE0002745F6DA7307EB080173
:10246000C0F600030291CDE900230BA90EAB0222B6
:1024700003906AE0DBF80400B8EB00014FF00000C5
:1024800047D48B18DBF80070BB4243DCDBF820003C
:10249000A31D00F0B9F8DAF82C000EAD29468269C8
:1024A0000BA8904731582950051D52E045F6C360EE
:1024B000C0F6000008E045F68460C0F6000003E0C6
:1024C00045F64060C0F6000000210EABCDE90010DB
:1024D0000BA90322CDF8089037E0451C39E0002114
:1024E00001EB08002DA1CDE900310BA90EAB0222B2
:1024F00002902AE04FF0000945F6FC73002F09EB2B
:102500000802C0F6000358BF2844CDE900C3029278
:10251000ABE7002246F24D010A9C02EB0807C0F629
:102520000001CDE900010BA90EAB022202978AE758
:1025300045F649700022C0F600000291CDE9002066
:102540000BA90EAB0322CDF80C80504601F0D4FB52
:1025500005460A9C74B9DAF82C00006850B99AF85C
:102560001000400706D400204FB0BDE8F08F451C96
:10257000002CF0D00EA950462A4601F011FC4FB0B5
:10258000BDE8F08F4649584D45204E6F7420696D67
:10259000706C656D656E7465640A0000496C6C65ED
:1025A00067616C2064617461206164647265737337
:1025B00020307825305820696E2077726974655F05
:1025C0007265676973746572730A0000496C6C65A3
:1025D00067616C206E756D626572206F6620766132
:1025E0006C75657320256420696E20777269746547
:1025F0005F72656769737465727320286D617820F6
:102600002564290A0000000070B502EB010C8C451E
:1026100098BF70BDC2F1000C00EB010E00214FF01D
:10262000FF3200BF501C4D1CC4087244EE171C5DE5
:1026300024FA01F10CEB0004013405EB567424F08C
:10264000070401F001015170A5EB04010246E9D134
:1026500070BD00000000000080B548B144F2402386
:10266000C0F20F039A4203D2C0E90712002080BDD6
:1026700002F0CAFE052101604FF0FF3080BD00006E
:1026800080B510B18160002080BD02F0BDFE052143
:1026900001604FF0FF3080BD80B560B144F23F2350
:1026A000C0F20F039A4206D852EA010303D0C0E9F0
:1026B0000512002080BD02F0A7FE052101604FF049
:1026C000FF3080BD0000000080B518B1C26A1269F9
:1026D000904780BD02F098FE052101604FF0FF3069
:1026E00080BD00000000000080B54BF6B151CFF670
:1026F0004D110144112906D24BF6FF62C0F20102CE
:10270000CA40D20702D1FDF7DBFE80BD45F650502E
:10271000C0F6000050F8210080BD0000000000005D
:1027200010B541F200040521C4F20104204601F075
:102730003BFD204601F018FD10BD00000000000028
:1027400070B500250C46C4F20205034600210022A4
:102750002846FFF725F9002128462246FFF7A0F971
:1027600000212846FFF7B4F8032600BF00212022ED
:102770002846FFF7F9F840B90A2001F019FF013E99
:102780003006F3D14FF0FF3070BD00212846FFF72F
:1027900093F8002120222846FFF7D2F8204670BD8A
:1027A00010B541F200040521C4F20104204601F0F5
:1027B00007FD204601F0E8FC10BD0000000000000D
:1027C000F0B581B0054641F200044FF47060C4F2E8
:1027D000010401F039FA41F2041001F035FA002742
:1027E0000721C5F602074FF400723846FFF77CF95F
:1027F00007214FF480623846FFF776F90221012263
:102800004FF400733846FFF7AFF9002101224FF46F
:10281000007338460026FFF7D3F9022101224FF456
:1028200080633846FFF7A0F9002101224FF480634E
:102830003846FFF7C5F9204601F032FC69682046AA
:1028400001F0BEFB687A811EB1FA81F14A09411E8E
:10285000204618BF510301F013FD287A0738C1B292
:1028600003294FF0000103D840B211A151F8201004
:10287000204601F019FDA87A4F2808BF4FF4C06622
:102880004528204608BF4FF48066314601F0E4FC3D
:1028900000F016F88021204601F06EFC0821204649
:1028A00001F0FAFC0421204601F0E2FC01B0F0BD89
:1028B00000000010000000000010000000100010D8
:1028C000B0B58AB040F6154001F0BEF940F61740A9
:1028D00001F0BAF900240021C4F2020400252046C8
:1028E000FFF702F840210120CDE9071541F2280148
:1028F0000690C4F201016A46CDE901104FF40030A0
:1029000009903420009000212046CDE9035505951B
:10291000FFF752F80AB0B0BD70B54EF60C5315462D
:10292000CEF200030E4604461B6803F4E063A3F5F1
:102930004073B3F5A06F01D2180A04E04FF4A06011
:1029400000F01EF80220C0F104010F2222FA01F16A
:102950004EF2001306FA00F02940E2B2CEF2000374
:10296000084342EA03011C26000181F8000306EA3D
:10297000D20004F01F01012202FA01F1C15070BD22
:102980004EF60C5140F08060CEF2000140F0FD7038
:1029900008607047000000004FF68072C1F6FF72B9
:1029A00011404EF60852CEF2000208431060BFF309
:1029B0004F8F70470000000080B54FF4985001F031
:1029C00043F980BD000000002DE9F04381B048F2DA
:1029D000B41240F23003C2F2004240F22804C2F2C4
:1029E0000043C2F20044158840F23802C2F20042AD
:1029F000D3F8008006460F46D2F800902268101DDA
:102A000001F05EFC4FF6FF70864219D1C7B148F263
:102A10008C10C2F20040D0E90012236801319A60A4
:102A200093682768FB602368976804337B6023689A
:102A30000433936022680160506101B0BDE8F08307
:102A400020683544AEB28580AE42206800F10401B2
:102A500005D0484601F060FC01B0BDE8F083404677
:102A600001F05AFC48F25810C2F2004001888E4230
:102A700038BF058001B0BDE8F08300000000000011
:102A80002DE9F041044601F073FC48F2E80040F201
:102A90002805C2F20040C2F2004548F280180168E1
:102AA000C2F2004801310160296849B1D8F800003C
:102AB00060B92868E16AC06A884298BF2C6005E066
:102AC0002C600068012801D100F0FAF948F2F40006
:102AD000271DC2F2004001680131016048F2F8018F
:102AE000E06AC2F200410A68904288BF086000EBC9
:102AF000800040F24001C2F2004101EB80026261BD
:102B0000536851F82020A36001329E68E6609E68F9
:102B10009F6041F82020776001F056FCD8F8000053
:102B200088B12868E16AC06A884228BFBDE8F081A0
:102B30004EF604504FF08051CEF200000160BFF31A
:102B40004F8FBFF36F8FBDE8F081000000000000E1
:102B500070B501F00DFC48F2B816C2F200463068BC
:102B600010B101F031FC70BD48F2FC04C2F2004427
:102B7000204601F0C1FB48F21015C2F2004528467C
:102B800001F0BAFB40F22C000C21C2F200400022FE
:102B9000046040F23C00C2F2004005600A2001F0EF
:102BA00003FF306001F010FC70BD00000000000069
:102BB000F0B581B048F2EC05C2F200452868E0B1FA
:102BC00048F2A01648F2E807C2F20046C2F20047F7
:102BD00001F0CEFBF068C468201D01F071FB38687D
:102BE0000138386028680138286001F0EDFB204684
:102BF00000F0A2F828680028EAD101B0F0BD00007A
:102C000080B5026C002A08BF80BDD0E902C313441E
:102C1000C360634501D30368C360C36808461946AF
:102C2000FDF719FC80BD000070B5866B0446036C8F
:102C3000E3B115461AB3E0681A46FDF70CFCE168EB
:102C4000206C2268091A9142E16003D24042A168D7
:102C50000844E060A81E3146B0FA80F0002E18BF8C
:102C60000121400900250840361A18E02068002597
:102C7000A8B9A06802F0DCF9A56005460FE060681D
:102C80001A46FDF7E8FB216CD4E9010208446060B4
:102C9000904201D2002502E0206860600025701C8F
:102CA000A063284670BD000080B586B000208DF876
:102CB0000C0044F24941009042F6E950C4F24C51F4
:102CC000029148F2501CC0F6000002A980220023A5
:102CD000C2F2004CCDF804C002F09AF806B080BDF4
:102CE0002DE9F04383B00746900098461546894683
:102CF00000F066FB70B10646542000F061FB30B175
:102D000054210446FDF7C0FB26632CB90FE0304682
:102D100001F076FB002454B1DDE90A10CDE9001082
:102D2000384649462A464346029400F081F8204638
:102D300003B0BDE8F083000010B50446006B01F05D
:102D40005FFB204601F05CFB10BD000000000000AE
:102D500040F22C01C2F2004109680A68B2FA82F31B
:102D6000002A4FEA5312026002D0C86800887047F8
:102D7000002070470000000040F2E00040F2340CF8
:102D8000C2F20040C2F2004CC11D10F0070221F057
:102D90000701A0EB010318BF08464FF40041002AC9
:102DA00018BF03F5004148F2841200230144C2F227
:102DB0000042083921F00701CCF800101060536080
:102DC000C1E90033091A4160DCF80020026048F2D2
:102DD0005410C2F20040016048F24C10C2F20040B0
:102DE000016070470000000040F240044EF60455B8
:102DF000C2F20044CEF200054FF08056FFF7D8FE35
:102E000020680228FAD32E60BFF34F8FBFF36F8F75
:102E1000F4E700000000000080B509B11A6000E08E
:102E20001B60C3E90F010121184601F0E5FD80BDDB
:102E30002DE9F0470A9F98468246089C386B71B18D
:102E400007F13403002600BF8D5D9D558D5D1DB1DA
:102E50000F2E06F10106F7D3002187F84310082C46
:102E60000BD34FF0500072B680F31188BFF36F8F11
:102E7000BFF34F8F62B600BFFEE700EB8200DDF8C4
:102E800024900438FC6220F00706381D7C6401F0B1
:102E90003FFA07F1180001F03BFAC4F1080038834B
:102EA0003046514642463F617F6200F075FBB9F102
:102EB000000F386018BFC9F80070BDE8F087000047
:102EC000B0B540F240050024C2F20045281901F0D7
:102ED00013FA1434A02CF9D148F22414C2F200449D
:102EE000204601F009FA48F23815C2F2004528469A
:102EF00001F002FA48F26C10C2F2004001F0FCF955
:102F000048F2A010C2F2004001F0F6F948F28C102D
:102F1000C2F2004001F0F0F940F23000C2F200408D
:102F2000046040F23800C2F200400560B0BD00000D
:102F300048F28413C2F200431A4600BF11461268D9
:102F40008242FBD399420AD040F2E00CC2F2004C1C
:102F5000614516D347F6FF736344994211D8D1F8FF
:102F600004C001EB0C03834203D140686044486015
:102F70000846D0F804C000EB0C0393420DD0134672
:102F800016E04FF0500072B680F31188BFF36F8FD8
:102F9000BFF34F8F62B600BFFEE740F23403C2F2C8
:102FA00000431B689A4203D0D2E900326244426077
:102FB0008142036018BF08607047000000000000F5
:102FC00080B58C4601469445006121F804CF08D9AC
:102FD0009A4201D29C4512D240F22C00C2F200402B
:102FE00008E0D21A008B92B2824208D240F23C0032
:102FF000C2F20040006801F08FF9002080BD01207E
:1030000080BD00000000000010B5044601F0B0F9DA
:10301000A06BB0FA80F0440901F0D6F9204610BD4B
:1030200008480068006880F308884FF0000080F3CB
:10303000148862B661B6BFF34F8FBFF36F8F00DFA6
:1030400000BF00BF08ED00E070B540F22C0206465C
:10305000C2F200420D461268D268D468201D01F009
:103060002FF994F82400410704D400F0FE0084F8FE
:10307000240004E0204631462A4600F0D5F8216AB3
:103080002046884770BD00002DE9F04184B048F229
:10309000B8140020C2F200440190CDE9020020687B
:1030A00001A9002201F098FD002869D0E84601AD91
:1030B0000DE000F0FE0086F82400316A30468847B3
:1030C00020680022294601F087FD002858D0019889
:1030D0000028F5D4039E706910B1301D01F0F0F89E
:1030E000404600F0D5F8019901390829E8D807468B
:1030F000DFE801F00505242739050524270096F8A7
:103100002400BDF80830318B3A4640F0010086F8C3
:103110002400C81881B23046FFF752FF0028CFD0F4
:1031200096F824004107C4D5BDF80800318B3A4613
:10313000084481B2304600F077F8BEE796F82400E4
:1031400019E0BDF8080096F82410308341F0010121
:1031500086F82410B8B138443A4681B230463B462E
:10316000FFF72EFFACE796F82400810703D4304622
:1031700001F046F9A4E700F0FE0086F824009FE77E
:1031800004B0BDE8F0814FF0500072B680F31188B2
:10319000BFF36F8FBFF34F8F62B600BFFEE7000033
:1031A00070B582B00E46044601F0DAFA01A800F0CC
:1031B0006FF8019919B102F00FF802B070BD054621
:1031C0004EB9A54207D302F007F820462946FFF77B
:1031D0003BFF02B070BD4EB140F23C00C2F2004075
:1031E00000680068B0FA80F0420900E0002248F26E
:1031F000B810611B89B2C2F20040006801F0B4F956
:1032000001F0EAFF0028D8D14EF604504FF080516B
:10321000CEF200000160BFF34F8FBFF36F8F02B09B
:1032200070BD00000000000070B50446008B0E4623
:1032300015460844334681B22046FFF7C1FE0028F8
:1032400008BF70BD208B216A064420468847B3B270
:10325000208B2A46304481B22046FFF7B1FE002879
:10326000F0D170BD0000000040F23000C2F200401A
:103270000168096819B10068C068008801E04FF66C
:10328000FF7048F25811C2F20041088070470000F8
:1032900070B5044601F0E4FD40F224060546C2F292
:1032A00000463188884203D200F00AF8012000E08D
:1032B000002020602846358070BD0000000000001E
:1032C00010B540F22C04C2F200442068016849B1F4
:1032D000C0684FF6FF710088FFF7B6FE20680168EE
:1032E0000029F5D140F23C01C2F200410A68226097
:1032F000086010BD0000000081B00020009040F286
:103300001000C2F2004000684FF0500172B681F325
:103310001188BFF36F8FBFF34F8F62B6013001D0BA
:10332000FEE700BF00980028FCD001B07047000005
:1033300082B001AC2046FFF70BFD0199FFF730FF8B
:10334000FFF7A2FEF6E70000F0B581B0044601F0F9
:103350000FF894F94560012E10DB04F1240503E019
:1033600070B2013E012809DD286838B1284601F015
:10337000B7FE0028F4D001F05BF9F1E7FF2684F8EE
:10338000456001F021F800F0F3FF94F94470012F3B
:1033900010DB04F1100503E078B2013F012809DDDC
:1033A000286838B1284601F09BFE0028F4D001F0CF
:1033B0003FF9F1E784F8446001F006F801B0F0BD90
:1033C0002DE9F04100F10805092D07D310F00700A1
:1033D00005D0A0F109018D4240F27780002501F06F
:1033E000BFF940F23408C2F20048D8F8000008B92A
:1033F000FFF7C2FC012D4FF00004C0F2BA8048F282
:103400004C1CC2F2004CDCF80000854200F2B18096
:1034100048F2841040F2E00EC2F20040C2F2004EC8
:103420000168714525D347F6FF707044814220D86A
:103430000A46002752F8046FAE4238BF012724D253
:10344000086810B347F6FF720EEB02047045C0F037
:1034500062800B460146A0425DD80A46002752F81A
:10346000046FAE4238BF012713D208680028EDD19F
:103470000FE04FF0500072B680F31188BFF36F8FEA
:10348000BFF34F8F62B600BFFEE748F28413C2F26B
:103490000043D8F8000081421BD0186800F10804EE
:1034A000744518D347F6FF707044844213D80868F7
:1034B0001860E7B14FF0500072B680F31188BFF387
:1034C0006F8FBFF34F8F62B6FEE7281A00F1080531
:1034D00085E700244DE04FF0500072B680F311886C
:1034E000BFF36F8FBFF34F8F62B600BFFEE7771B4E
:1034F000112F23D301EB050E5FEA4E7617D04FF064
:10350000500072B680F31188BFF36F8FBFF34F8FF7
:1035100062B600BFFEE74FF0500072B680F311882C
:10352000BFF36F8FBFF34F8F62B600BFFEE7CEF8D9
:1035300004701560CEF80000C3F800E048F25410A3
:103540001368C2F20040DCF80070FB1ACCF80030BF
:103550000768BB4238BF0360106840F0004010604D
:1035600048F260120020C2F2004208601068013088
:10357000106001F031FE60070BD04FF0500072B6C2
:1035800080F31188BFF36F8FBFF34F8F62B600BF18
:10359000FEE72046BDE8F08143F2F92321F0010166
:1035A000C0F6000340F80C3C4FF0807340F8202C2C
:1035B00040E902136FF0020140F8241CA0F144011D
:1035C00008467047000000002DE9F04782B044F241
:1035D0008C4A0646C5F6020A00F006FB5AF8841C1F
:1035E0008046C1F381094146DFE809F04302091032
:1035F00047F640014FF00009C0F27D1139E040F676
:1036000000114FF00009C0F23D0132E05AF8880C79
:103610005AF8881C5AF8882CC1F3881300F03F012F
:10362000C2F30647DAF81020100403F1010207F193
:10363000010302D44FF0000903E0DAF810906FF3B1
:103640005F39DAF80C0000F44030B0F5003F07D0E5
:10365000002840461CBF40F60010C0F23D0003E0C9
:1036600047F64000C0F27D1000934B4600F01CFB73
:1036700001465AF8847C5AF8842C5AF8840C162E89
:103680005AF884CC5AF8844C00F28182C7F30317AD
:103690000FF23855C2F38223C0F34230EF5D0FF2D0
:1036A0003C5521FA07F2EB5C285C22FA03F722FA78
:1036B00000F0DFE816F017001B001F006502230072
:1036C00026002E004D006C008B00AA00C900E80007
:1036D0000701260145015E0177019501B3018702CB
:1036E0005701CF01084602B0BDE8F087104602B08E
:1036F000BDE8F087384602B0BDE8F087CCF3C26081
:1037000001E0C4F30260285C22FA00F002B0BDE8D8
:10371000F0875AF8880C5AF8882C5AF8883CDAF85E
:103720001010090444BFDAF810906FF35F39DAF82B
:103730000C1001F4403700F03F01B7F5003F00F0F6
:103740008E81002F1CBF40F60018C0F23D088AE1B0
:103750005AF8880C5AF8882C5AF80C3CDAF81010F1
:10376000090444BFDAF810906FF35F39DAF80C10EF
:1037700001F4403700F03F01B7F5003F00F08081D1
:10378000002F1CBF40F60018C0F23D087CE15AF83B
:10379000880C5AF8882C5AF8883CDAF8101009047A
:1037A00044BFDAF810906FF35F39DAF80C1001F4C7
:1037B000403700F03F01B7F5003F00F07481002F63
:1037C0001CBF40F60018C0F23D0870E15AF8080C22
:1037D0005AF8082C5AF8083CDAF81410090444BFC7
:1037E000DAF814906FF35F39DAF80C1001F440370F
:1037F00000F03F01B7F5003F00F06481002F1CBFCF
:1038000040F60018C0F23D0860E15AF8080C5AF87A
:10381000082C5AF80C3CDAF81410090444BFDAF802
:1038200014906FF35F39DAF80C1001F4403700F0B0
:103830003F01B7F5003F00F05481002F1CBF40F658
:103840000018C0F23D0850E15AF8080C5AF8082C4C
:103850005AF8083CDAF81410090444BFDAF8149056
:103860006FF35F39DAF80C1001F4403700F03F01D4
:10387000B7F5003F00F04881002F1CBF40F600184C
:10388000C0F23D0844E15AF8040C5AF8042C5AF8E6
:10389000043CDAF81810090444BFDAF818906FF302
:1038A0005F39DAF80C1001F4403700F03F01B7F54A
:1038B000003F00F03881002F1CBF40F60018C0F216
:1038C0003D0834E15AF8040C5AF8042C5AF80C3C20
:1038D000DAF81810090444BFDAF818906FF35F396A
:1038E000DAF80C1001F4403700F03F01B7F5003F63
:1038F00000F02981002F1CBF40F60018C0F23D08DF
:1039000025E15AF8040C5AF8042C5AF8043CDAF869
:103910001810090444BFDAF818906FF35F39DAF829
:103920000C1001F4403700F03F01B7F5003F00F004
:103930001D81002F1CBF40F60018C0F23D0819E1A0
:10394000DAF8000000F44040B0F5004F0AD000283B
:10395000404600F0158140F60010C0F23D0002B074
:10396000BDE8F08747F64000C0F27D1002B0BDE828
:10397000F087DAF80010890700F00281DAF8000019
:1039800000F003000128104600F0FA80DAF8000089
:1039900000F00300022858D0DAF8000000F003001D
:1039A00003280CE1DAF8000010F4402F384600F04C
:1039B000E780DAF8000000F44020B0F5802F1046D0
:1039C00000F0DE80DAF8000000F44020B0F5002FAF
:1039D0003BD0DAF8000000F44020B0F5402FEEE0D4
:1039E000DAF8000010F4401F384600F0C980DAF819
:1039F000000000F44010B0F5801F104600F0C080B9
:103A0000DAF8000000F44010B0F5001F1DD0DAF81D
:103A1000000000F44010B0F5401FD0E0DAF80010CC
:103A200011F4400F00F0AC80DAF8000000F4400020
:103A3000B0F5800F104600F0A380DAF8000000F423
:103A40004000B0F5000F40F0B4804FF4004002B0E9
:103A5000BDE8F08740F60010C0F23D0090E047F668
:103A60004008C0F27D180020002918BFB8F1000FEF
:103A700000F086805AF80C0C800140F1888070E0DC
:103A800047F64008C0F27D180020002918BFB8F1A1
:103A9000000F75D05AF80C0C000278D5C2F38810CC
:103AA00003F07F037BE047F64008C0F27D1800205A
:103AB000002918BFB8F1000F62D05AF80C0CC001F1
:103AC00065D568E047F64008C0F27D18002000295F
:103AD00018BFB8F1000F53D05AF80C0CC00040D4F6
:103AE00055E047F64008C0F27D180020002918BFB5
:103AF000B8F1000F44D05AF80C0C400147D5C2F37E
:103B00008810C3F306234AE047F64008C0F27D1848
:103B10000020002918BFB8F1000F31D05AF80C0C62
:103B2000000134D537E047F64008C0F27D18002088
:103B3000002918BFB8F1000F22D05AF80C0CB0F1D0
:103B4000FF3F24DC0DE047F64008C0F27D1800205E
:103B5000002918BFB8F1000F12D05AF80C0C8000E1
:103B600015D5C2F38810C3F3064318E047F64008A2
:103B7000C0F27D180020002918BFB8F1000F02D153
:103B800002B0BDE8F0875AF80C0C400003D40020C6
:103B900002B0BDE8F087C2F38810C3F30663421C8D
:103BA000581C009040464B4600F07EF802B0BDE83D
:103BB000F087DAF8000000F44000B0F5400F18BFBD
:103BC0004FF00008404602B0BDE8F087000000005A
:103BD00000000000010203040607080900000000BD
:103BE000010203040000000044F2C440C5F60200D4
:103BF000016811F4403F0AD0016801F44031B1F589
:103C0000803F09D144F60000C0F2E810704749F245
:103C10000000C0F2D0307047016801F44031B1F5C6
:103C2000003F04D142F20040C0F2F4007047006847
:103C300000F440310020B1F5403F04BF41F20020C4
:103C4000C0F27A007047000044F2004300F01F0108
:103C50008009C5F60203012202FA01F1C25811439C
:103C6000C15070470000000044F2004300F01F0103
:103C70008009C5F60203012202FA01F1C25822EAC4
:103C80000101C1507047000044F2004300F01F01E1
:103C90008009C5F60203012202FA01F1C25811435C
:103CA000C15070470000000000EE102A01EE103AEB
:103CB0009FED0F3A02EE100AB8EE400AB8EE411A34
:103CC000B8EE422A01EE030A01EE101AB8EE411ACC
:103CD00082EE011A21EE000A9DED001AB8EE411A9B
:103CE00080EE010ABCEEC00A10EE100A704700BF59
:103CF00000000039000000002DE9F04182B00646C6
:103D000080681C4615460F46DDF8208040B140F221
:103D1000000009990AAAC2F20040019201F068FB72
:103D2000B8F1000F05D03046FDF75EFC3046FDF7D8
:103D3000A7FFF16A7868803078608A693846214642
:103D40009047411C2554084602B0BDE8F0810000B0
:103D5000B0B5012A8446049817DB54184FF0000EC2
:103D6000002208E003F800E0013000224FF0000ECE
:103D70000131A1420CDA1CF80150072A05FA02F5BC
:103D80004EEA050EEED00132F2E700224FF0000EAF
:103D9000002A08BFB0BD411C03F800E00846B0BDD2
:103DA0002DE9F04F81B00446C06A8846036A084690
:103DB00011469847A168814681B1B9F1010F0ADB2C
:103DC000A8F101072DA54E4617F8011F284601F05E
:103DD000FFFA013EF8D10A2001F0A2FF42F2DD66AF
:103DE000E06A41464A46436A20469847074610F132
:103DF000010B23D100212046FDF706F9207B800727
:103E00001CD501F001FB0546D0F800A00068B042C7
:103E100009D0286842F2B561884204D0286842F28D
:103E2000DE61884212D12046FDF70EFF2046FDF7E5
:103E3000DBFB2046FDF714FFC5F800A0BBF1000F27
:103E40000BD1E06810F00200CAD106E02046FDF771
:103E5000CBFB2046FDF714FFEEE7012F0ADB4F45B1
:103E600008D001F0D1FA44F25B214FF0FF37C0F2E5
:103E7000B2610160384601B0BDE8F08F5B252E329B
:103E8000585D00000000000044F20840C5F6020042
:103E900050F8081C41F4803140F8081C4FF6FE71C0
:103EA0004A1E8A4250F8081C03D211F40031114610
:103EB000F6D050F8081C890301D400BFFEE7416C1E
:103EC00041F00101416440F26841C5F600010A6811
:103ED00042F001020A6001684FF6F87241F0800179
:103EE00001600168CFF6FC7241F0806101600168F9
:103EF00041F00051016001680160016841F48051A6
:103F00000160D0F890101140C0F89010D0F89010D7
:103F100048F2000241F00211C0F8901050F8041C61
:103F2000C0F28002114040F8041C41F6C55250F81E
:103F3000041CC0F20012114340F8041C816F21F0F0
:103F40007F018167816F41F001018167816F41F0DD
:103F50006071816750F8081C41F0807140F8081CBE
:103F600050F8081C8901FBD5016821F003010160AC
:103F7000016841F003010160016801F00C010C29A6
:103F8000FAD170470000000080B5FFF77DFF80BDCB
:103F900080B540F20C0044F6D351C2F20040C1F2A9
:103FA00062010068A0FB01018809FCF78DFE00B1E9
:103FB000FEE70020FCF7C0FF80BD0000000000000D
:103FC000B0B547F2FF720446C4F200020D469042BB
:103FD0004FF0000013DC44F6FF31C4F200018C42C4
:103FE0001CDC44F20041C4F200018C4232D044F6A1
:103FF0000001C4F200018C4231D112202DE040F6C4
:10400000FF71C4F201018C4216DC47F60001C4F2D4
:1040100000018C420ED047F6004107E044F6004113
:10402000C4F200018C4205D045F20001C4F2000147
:104030008C4214D1022010E041F20001C4F20101CF
:104040008C4209D041F20041C4F201018C4206D1F8
:10405000132002E0112000E01020FFF7B5FA2168DC
:10406000090406D400EB5500B0FBF5F080B2E06027
:10407000B0BD40004FF6F07100EB5500B0FBF5F01D
:104080000140C0F342000844E060B0BD0000000001
:10409000406A6FF35F2070476FF39F218162704722
:1040A00010B547F2FF71C4F20001884214DC44F6F7
:1040B000FF31C4F20001884223DC44F20041C4F223
:1040C000000188423BD044F60001C4F2000188425E
:1040D00046D140F612043DE040F6FF71C4F2010102
:1040E00088421DDC47F60001C4F20001884229D055
:1040F00047F60041C4F20001884231D140F61F0466
:1041000028E044F60041C4F2000188421DD045F287
:104110000001C4F20001884222D140F6140419E0E3
:1041200041F20001C4F20101884211D041F2004184
:10413000C4F20101884213D140F605140AE040F6AA
:10414000110407E040F61E0404E040F6130401E009
:1041500040F604142046FFF797FD2046FFF784FD44
:1041600010BD000000000000016821F001010160A5
:104170007047000000000000826822F080021143B6
:104180008160704700000000016841F0010101609A
:1041900070470000000000008A0901F01F0110585C
:1041A000C84000F0010070478A0901F01F01012397
:1041B00003FA01F1135823EA01011150704700007E
:1041C0008A0901F01F01012303FA01F11358194371
:1041D000115070470000000043F20942C3F20F4241
:1041E000914212D043F21B42C3F21642914213D0C5
:1041F00043F21F42C3F21842914214D1D0F8D010BA
:1042000041F08061C0F8D0107047D0F8D01021F490
:104210000041C0F8D0107047D0F8D01021F48001D0
:10422000C0F8D0107047C1F30441012202FA01F135
:10423000026A114301627047C1F389128B0D125853
:104240001858C1F3044301F01F01D84022FA01F1CC
:10425000084000F001007047026822F0010202608D
:10426000026822F4C0620260026811430160704774
:10427000026822F004020260026811430160704784
:10428000026822F001020260426822F44052426059
:104290004268114341607047026822F008020260E0
:1042A0000268114301607047026822F00102026057
:1042B000026822F010220260026811430160704718
:1042C000D0E9013201699A60D0F808C04A68824298
:1042D0004FF00002CCF8043008BFC1F804C00B68EE
:1042E0000261581E0860704748F2E800C2F20040C0
:1042F000006870470000000002464FF6FF7122F888
:10430000081F0021C0E90322C0E900127047000025
:10431000002101617047000080B5B1F800C04FF680
:10432000FF72944502D1D0F810E006E000F10803D6
:104330009E465B681A886245FAD9DEF804204A6016
:10434000CEF804109160C1F808E0086101680131FD
:10435000016080BD00000000DFF80C00016841F43E
:1043600070010160704700BF88ED00E000000000B0
:104370004FF0500072B680F31188BFF36F8FBFF318
:104380004F8F62B640F21000C2F20040016800296F
:1043900001F10101016000D070474EF60450CEF2E9
:1043A00000000068000608BF70474FF0500072B66A
:1043B00080F31188BFF36F8FBFF34F8F62B600BFDA
:1043C000FEE700000000000040F21000C2F20040D2
:1043D000016839B10139016018BF7047002080F3CE
:1043E000118870474FF0500072B680F31188BFF308
:1043F0006F8FBFF34F8F62B6FEE700000000000032
:10440000B0B5002808BFB0BD0446A0F1080540F2D1
:10441000E000C2F20040854213D347F6FF71084422
:1044200085420ED854F8040C002816D44FF05000E2
:1044300072B680F31188BFF36F8FBFF34F8F62B6F0
:10444000FEE74FF0500072B680F31188BFF36F8F14
:10445000BFF34F8F62B600BFFEE7296859B14FF036
:10446000500072B680F31188BFF36F8FBFF34F8F88
:1044700062B600BFFEE720F0004044F8040C0828B4
:1044800004D3A0F108012046FBF7FEFF00F068F915
:1044900048F24C1054F8041CC2F200400268114467
:1044A00001602846FEF744FD48F26410C2F2004065
:1044B00001680131016000F08FFEB0BD0000000016
:1044C0004EF210000021CEF2000044F6D352C1F2A9
:1044D00062020160816040F20C01C2F20041096891
:1044E000A1FB02124FF0FF3101EB92114160072155
:1044F0000160704700000000EFF30580102816D31C
:104500004EF2F03148F2E002CEF20001C2F2004277
:10451000405C117888420AD24FF0500072B680F3A6
:104520001188BFF36F8FBFF34F8F62B6FEE74EF671
:104530000C5048F2E401CEF20000C2F200410068E3
:10454000096800F4E060884298BF70474FF050005F
:1045500072B680F31188BFF36F8FBFF34F8F62B6CF
:10456000FEE700000000000070B515460E46044648
:10457000FFF7FEFE94F84400FF2802D1002084F8E3
:10458000440094F84500FF2802D1002084F845003B
:10459000FFF71AFFA06B28B904F1240031462A4620
:1045A00000F06AF82046FEF7CFFE70BD0000000064
:1045B00010B590B1044600F0D3F848F2F000C2F212
:1045C00000400068012814D100212046FEF7FCF9C4
:1045D00000F002FE002818BF10BD4EF604504FF048
:1045E0008051CEF200000160BFF34F8FBFF36F8F99
:1045F00010BD4FF0500072B680F31188BFF36F8F7B
:10460000BFF34F8F62B600BFFEE70000000000005E
:1046100048F25C11C2F200410968016048F2B4112D
:10462000C2F200410988818070470000000000004C
:1046300048F2C0100121C2F2004001607047000042
:1046400010B568B10C4640F22801C2F20041096879
:104650001831FFF761FE01212046FEF7B5F910BDC4
:104660004FF0500072B680F31188BFF36F8FBFF325
:104670004F8F62B6FEE70000B0B538B340F2280EA7
:10468000D0F800C0C2F2004E4368002ADEF80040B5
:10469000E3619C68DEF800502C62DEF800409D6803
:1046A00004F118046C60DEF8004004F118049C600A
:1046B000DEF8003098620CF1010318BF4FF6FF716D
:1046C000036008461146FEF77FF9B0BD4FF0500079
:1046D00072B680F31188BFF36F8FBFF34F8F62B64E
:1046E000FEE700000000000080B5FEF7DDFA0128BB
:1046F00001D100F02DFE411C26D001281ED14FF023
:10470000500072B680F31188BFF36F8FBFF34F8FE5
:1047100062B648F25810C2F200404FF6FF710180B5
:1047200048F28010C2F200400121016048F2B4104A
:10473000C2F200400021018000F06EF846F23C40D9
:10474000C0F60000006880BD4FF0500072B680F3E4
:104750001188BFF36F8FBFF34F8F62B6FEE7000083
:1047600048F2F000C2F20040016801310160704778
:1047700080B548F2F000C2F20040006830B148F263
:10478000C0100121C2F20040016080BD48F2C0109B
:1047900048F2F80CC2F20040C2F2004C002140F294
:1047A00040020160C2F20042DCF8001001EB81031C
:1047B00052F8230050B902EB8300A0F1140300BFAC
:1047C000F1B153F8140901390028F9D001EB810047
:1047D00002EB800E724652F8040F131D4068106001
:1047E000984202D1DEF80C001060106840F22802F6
:1047F000C2F20042C0681060CCF80010106880BDA2
:104800004FF0500072B680F31188BFF36F8FBFF383
:104810004F8F62B6FEE70000B0B584B04EF620546C
:1048200040F6A142CEF20004C0F6000254F8180C83
:10483000C16A91420BD04FF0500072B680F31188DC
:10484000BFF36F8FBFF34F8F62B600BFFEE740F636
:104850003141806BC0F6000188420AD04FF0500011
:1048600072B680F31188BFF36F8FBFF34F8F62B6BC
:10487000FEE74EF200400021CEF20000029148F225
:10488000E0020178C2F200428DF80F10FF210170A2
:1048900001788DF807109DF8071011F05001117084
:1048A0004DD09DF8071001F05001502953D19DF9CA
:1048B0000710B1F1FF3F0BDC0299013102919DF825
:1048C000071049008DF807109DF907100029F3D44F
:1048D0000299002508294FF0000106D002994FF4F3
:1048E000E062A2EB012101F4E06148F2E402C2F2CD
:1048F000004211609DF80F100170206840F47F00A5
:104900002060206840F07F40206044F8045CFFF79E
:10491000D7FD40F21000C2F200400560FFF71CFD19
:10492000D4F8140240F04040C4F81402FEF778FBBB
:10493000FFF71EFFFEF7E0FC002004B0B0BD4FF013
:10494000500072B680F31188BFF36F8FBFF34F8FA3
:1049500062B600BFFEE74FF0500072B680F31188D8
:10496000BFF36F8FBFF34F8F62B600BFFEE700004B
:1049700080B54FF0500072B680F31188BFF36F8F8F
:10498000BFF34F8F62B600F077FA30B14EF60450A5
:104990004FF08051CEF200000160002080F31188BA
:1049A00080BD00000000000070B5B8B104460D469F
:1049B000A0FB010191B905FB04F010F1490F0DD8DE
:1049C0004830FEF7FDFCA0B1064600F14802204643
:1049D00029463346FEF720FA304670BD4FF05000AE
:1049E00072B680F31188BFF36F8FBFF34F8F62B63B
:1049F000FEE70026304670BD70B528B30446C06B94
:104A000068B30E46216C0025A0FB010141BBFFF7F6
:104A1000AFFCD4E90F012268A56301FB0023013834
:104A200000FB01206260C4E90230FF2084F84400EA
:104A300084F8450004F11000FEB1FFF75DFC04F1BD
:104A40002400FFF759FC28E04FF0500072B680F3C5
:104A50001188BFF36F8FBFF34F8F62B6FEE700255B
:104A6000012000B34FF0500072B680F31188BFF3FD
:104A70006F8FBFF34F8F62B6FEE7016869B100F038
:104A80002FFB50B14EF604504FF08051CEF2000093
:104A90000160BFF34F8FBFF36F8FFFF795FC0125C8
:104AA00000200028DED1284670BD00000000000074
:104AB0002DE9F04710B304461E4615460F4641B394
:104AC000022E02D1E06B012851D1FFF715FDEFF363
:104AD00011884FF0500072B680F31188BFF36F8FCA
:104AE000BFF34F8F62B6022EA06B20D0E16B8842DD
:104AF0001DD3002088F31188BDE8F0874FF05000E7
:104B000072B680F31188BFF36F8FBFF34F8F62B619
:104B1000FEE7206C0028D3D04FF0500072B680F32F
:104B20001188BFF36F8FBFF34F8F62B6FEE794F922
:104B300045A0A06B204639465FFA8AF93246FEF757
:104B400073F8B9F1FF0F1ED0FFF7CEFB50452AD9FD
:104B5000B9F17F0F2CD14FF0500072B680F311885D
:104B6000BFF36F8FBFF34F8F62B600BFFEE74FF00A
:104B7000500072B680F31188BFF36F8FBFF34F8F71
:104B800062B600BFFEE754F8240FD0B1204600F013
:104B9000A7FA01460120002D18BF002916D188F37D
:104BA0001188BDE8F087012088F31188BDE8F087FF
:104BB00009F1010084F84500012088F31188BDE85F
:104BC000F087012088F31188BDE8F0870120286074
:104BD00088F31188BDE8F0872DE9F04F85B0ADF876
:104BE0001220B0B104460D46002900F0AB8000F061
:104BF00023F9D0B9BDF81200B8B14FF0500072B629
:104C000080F31188BFF36F8FBFF34F8F62B600BF81
:104C1000FEE74FF0500072B680F31188BFF36F8F3C
:104C2000BFF34F8F62B600BFFEE704F1100904F135
:104C30002400019002AF0DF1120A4FF000080AE0C3
:104C40002046FEF781FB00F0C7FA2046FEF7DCF9AC
:104C5000002840F08680FFF78BFBD4F838B0BBF11A
:104C6000000F1DD020462946FDF7CAFFABF1010019
:104C7000A063206970B1484600F032FA50B14EF698
:104C800004504FF08051CEF200000160BFF34F8F0F
:104C9000BFF36F8FFFF798FB00200126A0B961E0FA
:104CA000BDF8120050B1B8F1000F02D13846FFF73D
:104CB000AFFC4FF00108012030B953E0FFF784FB4F
:104CC0000026002000284DD0FFF77EFBFFF748FDAF
:104CD000FFF74EFB94F84400FF2802D1002084F82F
:104CE000440094F84500FF2802D1002084F84500D4
:104CF000FFF76AFB3846514600F03AF800289FD18A
:104D00002046FEF781F9B8B1BDF812100198FFF7FF
:104D100097FC2046FEF718FB00F05EFA00289AD1B7
:104D20004EF604504FF08051CEF200000160BFF308
:104D30004F8FBFF36F8F8EE72046FEF705FB00F025
:104D40004BFA88E7206C00283FF451AF4FF0500039
:104D500072B680F31188BFF36F8FBFF34F8F62B6C7
:104D6000FEE70026304605B0BDE8F08F00000000E9
:104D7000B0B5F0B10C4641B30546FFF7F9FA48F279
:104D8000B4104FF6FF72C2F20040018820889042B2
:104D900027D048F25C13AA88C2F200439142D3F8AC
:104DA00000C020D32B689C451DD00020208001240A
:104DB00027E04FF0500072B680F31188BFF36F8F79
:104DC000BFF34F8F62B600BFFEE74FF0500072B6E0
:104DD00080F31188BFF36F8FBFF34F8F62B600BFB0
:104DE000FEE700240DE0891A8AB2904206D9401AE3
:104DF00020802846FFF70CFC002402E000202080E1
:104E00000124FFF7E1FA2046B0BD000000000000D9
:104E100080B582B0DDE904CECDE900CEFDF760FFBC
:104E200020B1FDF72DFE012002B080BD4FF0FF3014
:104E300002B080BD0000000048F28010C2F20040C5
:104E4000006848B148F2F000C2F200400068B0FAD1
:104E500080F04009400070470120704700000000CA
:104E600010B5FFF785FA48F2B410C2F2004004888A
:104E7000FFF7AAFA204610BD2DE9F04F81B048F2A5
:104E8000F000C2F20040006850B148F26810C2F26F
:104E90000040018801310180002001B0BDE8F08FA1
:104EA00048F2B410C2F200400188013101801FFABB
:104EB00081F8884522D040F23000C2F200400168FB
:104EC000096851B14FF0500072B680F31188BFF3FA
:104ED0006F8FBFF34F8F62B6FEE740F23802016872
:104EE000C2F200421368036048F25C101160C2F223
:104EF0000040016801310160FEF7B6F948F258112F
:104F000040F2400EC2F20041C2F2004E08888045D5
:104F100001D2002071E040F2300B4FF6FF75C2F273
:104F2000004B4FF0000ADBF800000068002858D062
:104F300048F2F8090020C2F2004924E0FE6AD9F8DC
:104F400000108E4206EB860188BFC9F800600EEBA8
:104F500081037B615D68BD60AC68FC60AC68AA6081
:104F600062605EF8212001324EF8212040F22801D3
:104F7000C2F200410968C96ADBF800208E4288BF8E
:104F80000120116879B3DBF80020D268D7683A466F
:104F900032F8045FA8452BD3D7E902367D699E60BD
:104FA000FE68D5F804C09445736008BF6E60BE6AA1
:104FB0002B68002EC7F814A0A3F101032B60BDD00D
:104FC000FB693D6A07F1180174689D608C423D6A77
:104FD0006B6008BF75603168C7F828A0013931607F
:104FE000ACE7002008E048F258114FF6FF7501E0E9
:104FF00048F25811C2F200410D8040F22801C2F27D
:1050000000410968C96A01EB81015EF8211001299C
:1050100048F2C011C2F2004188BF0120096800298E
:1050200018BF012001B0BDE8F08F000000000000B3
:10503000B0B590B1044640F22800C2F200400068CA
:10504000A0420CD04FF0500072B680F31188BFF32D
:105050006F8FBFF34F8F62B6FEE70020B0BDA06C2C
:1050600088B30138A0644FF000002BD1E16A626C74
:10507000914208BFB0BD251D2846FFF721F9606C9D
:10508000E062C0F10801218348F2F80140F2400CCF
:10509000C2F20041C2F2004C0A68904288BF086028
:1050A00000EB80000CEB800262615368A36099689A
:1050B000E16099689D604D605CF8201001314CF80A
:1050C00020100120B0BD4FF0500072B680F311885F
:1050D000BFF36F8FBFF34F8F62B600BFFEE70000D4
:1050E00080B5C068C06820B3C169826A036A00F1F4
:1050F000180C8B605368D0F820E06345CEF804109C
:105100004FF0000108BFC2F804E013688162591E25
:10511000116048F2F001C2F200410968A9B148F2F9
:105120006C12C2F2004282625168C1618B680362F4
:1051300036E04FF0500072B680F31188BFF36F8FE6
:10514000BFF34F8F62B600BFFEE781684269C36854
:1051500000F1040C8B605368D0F80CE06345CEF886
:1051600004104FF0000108BFC2F804E01368416169
:10517000591E48F2F803C2F200431160C26A19686E
:105180008A4202EB820188BF1A6040F24002C2F2FA
:10519000004202EB81024261516881608B68C3600A
:1051A0008B68C1F808C0C3F804C01168C06A013137
:1051B000116040F22801C2F200410968C96A8842C0
:1051C00006D948F2C0110120C2F20041086080BD3A
:1051D000002080BD000000002DE9F04F81B0FFF7F6
:1051E000C7F848F2F000C2F20040016859B1016806
:1051F00001390160006890B10024FFF7E5F820460E
:1052000001B0BDE8F08F4FF0500072B680F3118806
:10521000BFF36F8FBFF34F8F62B600BFFEE748F258
:10522000E800C2F200400068002800F08C8048F2DC
:105230006C1A48F2C019C2F2004A40F22808C2F2C1
:105240000049C2F20048DAF80010002956D048F2AE
:10525000F80E40F240034FF0000BC2F2004EC2F2D3
:1052600000434FF0010C00BFDAF80C70FC6804F149
:105270001802E569A76A266AAE607868266A9042D5
:10528000756008BF7E603868C4F828B0013838609F
:10529000261DA0686769E26882607A68E568B242A4
:1052A000686008BF7D603868C4F814B001383860A1
:1052B000E76ADEF80000874207EB870088BFCEF878
:1052C000007003EB800262615568A560A968E16027
:1052D000A968AE604E6053F82010013143F82010E9
:1052E000D8F80000C06A874288BFC9F800C0DAF861
:1052F00000000028B8D10CB1FDF7B6FF48F26814E1
:10530000C2F20044268866B1012700BFFFF7B4FD52
:10531000013E002818BFC9F800703004F6D1002003
:105320002080D9F8000080B1D8F800004EF6045073
:10533000CEF200004FF0805101240160BFF34F8F87
:10534000BFF36F8F59E7002457E7002455E70000AB
:1053500080B582B0FDF7FCFB48F2B810C2F2004005
:10536000006888B10720009043F2313048F2BC1C3D
:10537000C0F600000DA180220023C2F2004CCDF83F
:1053800004C0FFF745FD00E0002000281CBF02B06C
:1053900080BD4FF0500072B680F31188BFF36F8F5D
:1053A000BFF34F8F62B600BFFEE700BF546D72209F
:1053B000537663000FB4024610B504A9034B03985B
:1053C00000F0F8F810BC5DF814FB0000B11A0008FA
:1053D0000FB4054B10B503A9044A029800F0EAF88F
:1053E00010BC5DF814FB0000B11A0008080000248E
:1053F00030B414460D4602462146284630BC014BC7
:1054000000F0D8B8B11A0008004870470400002422
:1054100002E008C8121F08C1002AFAD1704770477D
:10542000002001E001C1121F002AFBD170470000DB
:105430002DE9FF5F82B00021DDE90430020DDDF8C7
:1054400040B0034318D044F61050A2F2FF3242435A
:105450001514119801281FD0A5EB0B00401C5FEA22
:10546000000A4FF000064E4FDFF83891B046504624
:1054700015D5CAF1000413E0119801244AA30128AC
:1054800001D16FEA0B010298119AC0E90031C0E91D
:10549000024206B0BDE8F09FCBF10000DFE7044612
:1054A0000021404A491842EB0450CDE9001012E0B7
:1054B000E00707D032463B4640464946FBF74EF9E7
:1054C0008046894632463B4610461946FBF746F968
:1054D00006460F466410002CEAD1DDE90401DDE93F
:1054E0000023BAF1000F06DAFBF738F942464B46C3
:1054F000FBF734F905E0FBF7A3F942464B46FBF70F
:105500009FF904460E460022284BFBF721FA03D8E8
:105510004FF0FF30014607E00022254B2046314680
:10552000FBF775F8FBF7FBF9102409E0002C0ADB08
:105530000A220023FAF75EFF039B30321A55641EDD
:1055400050EA0102F2D1641C039AC4F1110314441D
:10555000119A012A03D0012208430DD10AE0084321
:1055600004D000204FF0110B119072E7A3EB0B0554
:105570006D1E0DE05B4504DD4FF0000205F10105F5
:1055800004E003DA4FF00002A5F10105002AECD097
:1055900002981199C0E90231C0E9004579E700009D
:1055A000000014400000F03F300000000000F04315
:1055B0000000E03F2DE9FF4F95B09B468946064627
:1055C00000250FE2252877D100242746F84A01213B
:1055D000059400E0044316F8013F203B01FA03F074
:1055E0001042F7D130782A2811D06FF02F0330788D
:1055F000A0F13002092A16D8059A44F0020402EB01
:10560000820203EB42021044761C0590EFE759F842
:10561000042B0592002A03DA504244F4005405900A
:1056200044F00204761C30782E2816D116F8010FAB
:1056300044F004042A280DD06FF02F023078A0F136
:105640003003092B09D807EB870302EB4303C71884
:10565000761CF3E759F8047B761C30786C280FD061
:1056600006DC4C2817D068280DD06A2814D104E035
:10567000742810D07A280FD10DE044F400140AE009
:1056800044F4801401E044F440147278824202D160
:1056900004F58014761C761C307866280BD013DC59
:1056A000582877D009DC002875D04528F6D0462840
:1056B000F4D047281AD19DE118E0632835D064283A
:1056C00079D0652812D195E1702873D008DC67285D
:1056D000F1D069286FD06E280DD06F2806D1B5E0C3
:1056E00073282CD0752875D0782874D05A4617990D
:1056F00090476D1C75E1C4F30250022809D00328BD
:105700000DD0D9F8001004280DD00D6009F104095E
:1057100067E1D9F80010EA17C1E90052F6E7D9F8B5
:1057200000100D80F2E70D70F0E719F8041B8DF8FA
:10573000001000208DF80100EA46012003E059F82E
:1057400004AB4FF0FF3061074FF0000102D40DE0D1
:1057500008F101018846B9420FDA8045F8DB1AF8F2
:1057600008100029F4D108E008F1010188468142BF
:10577000FADB1AF808100029F6D105985B46A0EB71
:10578000080721463846179A00F094FA284400EB9F
:10579000080507E04DE029E10DE01AF8010B5A4633
:1057A00017999047B8F10108F7D25B462146384671
:1057B000179A13E142E00A220092C4F302524FF01A
:1057C000000A022A08D059F804CB032A4FEAEC71E8
:1057D0000AD00DE029E02AE009F1070121F00702D3
:1057E000F2E802C1914609E00FFA8CFC4FEAEC7135
:1057F000042A03D14FFA8CFC4FEAEC71002907DA36
:105800000A460021DCF1000C61EB02012D2202E0CE
:10581000220504D52B228DF80420012203E0E207A3
:1058200001D02022F7E7904659E00A2102E0102239
:105830000DE010214FF0000A00910BE010224FF014
:10584000000A44F004040827009203E008224FF005
:10585000000A0092C4F30252022A05D059F804CB80
:105860000021032A08D009E009F1070121F007020D
:10587000F2E802C1914605E01FFA8CFC042A01D12E
:105880000CF0FF0C4FF00008220728D5702806D036
:10589000009B83F0100353EA0A0305D00EE0402278
:1058A0008DF80420012208E05CEA010206D03022D3
:1058B0008DF804208DF8050002229046009B83F0AD
:1058C000080353EA0A030AD15CEA010201D1620724
:1058D00005D530228DF804204FF001087F1E58288E
:1058E00004D034A003900EA802900DE036A0F9E792
:1058F00053466046009AFAF77DFD84460398825C21
:105900000298401E029002705CEA0100F0D10298F9
:1059100006A9081A00F1200A600702D524F4803491
:1059200000E00127574502DDA7EB0A0000E0002058
:1059300000EB0A01009005984144401A0590E003ED
:1059400006D45B462146179A059800F0B3F9054442
:10595000002706E001A85A46C05D179990476D1CC4
:105960007F1C4745F6DBE0030CD55B462146179AC2
:10597000059800F09FF9054404E030205A46179935
:1059800090476D1C0099481E00900029F5DC08E046
:10599000029802995A460078491C0291179990473B
:1059A0006D1CBAF10001AAF1010AF1DC65E1000009
:1059B00009280100303132333435363738396162E5
:1059C00063646566000000003031323334353637A9
:1059D00038394142434445460000000000F058F980
:1059E0000544761C307800287FF4ECAD19B02846C9
:1059F000BDE8F08F620700D4062709F1070222F004
:105A0000070CFCE80223E14603F000485FEA080CBB
:105A100002D00FF2702C0DE05FEA045C02D50FF2A9
:105A2000682C07E05FEAC47C02D00FF2602C01E032
:105A3000AFF2700C4FF0FF3823F00043CDF850C0A8
:105A400065280CD006DC452809D046281DD04728FB
:105A50003DD13DE0662818D067287ED138E000218E
:105A6000112F01DB112000E0781CCDE9000106A90F
:105A70000EA8FFF7DDFCDDE90F010E9A039100216E
:105A8000009207F1010A04914DE04FF000400097A9
:105A9000CDE9011006A90EA8FFF7CAFCDDE90F0247
:105AA00003920E9B11990022DDF80CA00093049242
:105AB00011B9791C00EB010AB7EB0A0004D4C0F15C
:105AC000FF3007F1010A0490AAEB0700019044E0BF
:105AD000012F00DA01270021112F01DD112000E044
